:10000000B4CC18951895CDC71895189518951895CE
:1000100041C12EC1189554CC18951895189518956E
:100020001895189518950A00000064000000E80370
:10003000000010270000A086010040420F008096BB
:10004000980000E1F5056B487A006D73200072702E
:100050006D002020200000000000000000000900CA
:10006000000001000000E80300001027000001006C
:1000700000000100000064000000C1BDF0FF0000AE
:1000800000003F420F000100000001000000E803F3
:100090000000000000000100000001000000809648
:1000A00098000020A107FFC99A3B010000000A0048
:1000B0000000A0860100010000000100000000E136
:1000C000F50546432D353130004175746F204F6E74
:1000D000004175746F204F66660046202000464937
:1000E000460050202000484920004C4F200044206A
:1000F0002000526F740046482000464C20006446A1
:100100002000496E642000476174650041766720D5
:100110000049462020005072652000496E7420007E
:100120004320202000532020200053202020004F77
:100130006E20004F6666004402B00100005000606F
:03014000013E1D60
:1001440000E808B906E003BF0EBD05E008BF09B723
:10015400056009BF19D308EC10E0B0D204831583FD
:1001640001E00093F5011093F6010895BA93AA9360
:10017400002309F451C0A2D259D021F000810150CA
:10018400104058D2ABEBB1E00091F601102F1A9554
:1001940059F01A9571F01A95A9F01A95C9F01A95A3
:1001A400E9F01350D1F12FC00481158143D202E04C
:1001B40023C03CD089F535D04ED0929A7FD238D224
:1001C40003E01AC0B19B1BC0A99A32D204E014C048
:1001D4002DD011F592982CD205E00EC0B1990FC024
:1001E400A9988BD06BD0FD0126A937A9200F311F08
:1001F40026AB37ABA7D006E00093F6010DC02081F3
:100204003181232B11F0073039F49298A99800E03A
:10021400FD0110D006E003AF27C2A99A02D0A99825
:10022400F9CF4CD0FD0106AB17AB089500811181C5
:10023400012B089500AB01AB02AB03AB04A705A7E8
:1002440006A707A70083018302830383048305832E
:10025400068307830895AC9800E002BF0DBD0CBD72
:100264006ED0008701870287AC9A0895FA93EA93C7
:1002740074D12FB764D0008511850F5F1F4F00879D
:1002840011872FBF099119912991E991F991189535
:1002940065D11FB70091BA0103950093BA011FBF3E
:1002A40009911991189500E028E00695C09A00C0BC
:1002B400C098B19900682A95C1F708956ED180E07D
:1002C40090E0A5E0C8DFAD9A13D0AD9811D0AB98FB
:1002D400EADFE9DFE8DFAB9A102F110F110B800F73
:1002E400911FAA9579F78C0189919991A991089503
:1002F40005E80A95F1F7000008954A928A93AB98AD
:10030400D2DF402ED0DF802FCEDF102F110F110B44
:10031400F8D104AB15ABAB9A12D02085318542B726
:10032400448245832683378372850CB51DB5E9D194
:1003340080A701A712A773A7899149900895E0EBBC
:10034400F1E00895EFD328D1A097989B04C0D9D1A8
:10035400A0ADB1AD02C0A1E0B0E0F1DF2AD1EED092
:100364002B2F220F220BA88FB98F2A8F2B8F2C8F24
:100374002D8F2E8F2F8FC5D100A511A522A533A5B2
:100384003DD11896B3DBDE01589689D3D8DF0481BA
:100394001581268137814091F8014423B2D129F097
:1003A40004A715A726A737A704C000AB11AB22AB3F
:1003B40033ABBDD0A0E6B1E078D39091F7010091C2
:1003C400F9010023C9F09330B9F09430A9F099D120
:1003D40044A955A9652F55D146A957A951954195C9
:1003E4005040652F660F660B762F54DBA7D096D04E
:1003F400FE01389635DC5AD300E083D123DF9330F5
:1004040021F0943011F0923049F508EE802E03E08B
:10041400902EAA24BB243AD3AAD029F446C07ED075
:1004240096D044D374D090D0E8E7F1E0A3D014F48C
:10043400ACD0ACF789D0A0E8B1E08CD03CD3FDD2ED
:10044400888E998EAA8EBB8ECC8ECD8ECE8ECF8E7C
:100454000CD37F854BD3DE01589624C000E8802E50
:1004640006E9902E08E9A02EBB2458D080D029F4A8
:100474001CC00CD36CD014D34AD008D366D0E8E89F
:10048400F1E078D014F481D0A4F7F7D2DE01E3DBF5
:10049400DBD24C8F5D8F6E8F7F8F3FD34C8D5D8D04
:1004A4006E8D189623DB2DD1B5D07BD070960ADCE7
:1004B4001CF48F0126D122D024D13AD3448555850A
:1004C40066857785FFDB1CF403EC11E017D069D057
:1004D4007896D7DB16D100A311A322A333A344A398
:1004E40055A366A377A30091F501002321F04CD115
:1004F40000E00093F501A096B5D003C048E050E0B9
:10050400EACA89909990A990B990C99008954AE04F
:1005140090D28CD2BFDA480159010895088119811B
:100524002A813B814C815D816E817F810895432FB7
:10053400440F440B542F642F742F089565D0C0D2F8
:100544004D874E874F870895E9DF0BD006C004D04E
:10055400A0E7B1E011D0CACA04D02A931A930A932F
:1005640008957A936A935A934A933A930895F4DFD9
:10057400E8E6F1E001D0A6CB2196199129913991B1
:100584004991599169917991089502E0801600E0AA
:100594009006A006B0060895BA93AA939A938A93F4
:1005A4000895EBEBF1E005D04481558166817781B4
:1005B400089500811181228133810895BA93AA9309
:1005C400289700900D02002049F0EFE0F2E0402D62
:1005D40001931193219331934A95D1F740E04093CD
:1005E4000E02088249834A834B834C834D834E8396
:1005F4004F8304D07BDA0CD0289636C005D0542F14
:10060400642F742FDE010895432F440F440B089583
:10061400E0E0F2E000831183228333834483558333
:100624006683778308958BDE05D022833383089510
:1006340002811381008311830895BA93AA9361D030
:10064400DF01DC960C93033011F4969A05C0043054
:10065400969811F4979A01C0979893983DD0EADD43
:10066400ADDF02C089919991A991B9910895A8012A
:10067400612F07D044EF51E0F5D120D002831383DA
:100684000895660F660B08EE13E02224169F302DA2
:10069400069F300D159F202D310D069F200D311D15
:1006A400149F102D210D321D059F100D211D321D8B
:1006B400049F002D110D221D321D0895EAEFF1E073
:1006C4000895002311F401E003C0053608F004E6A0
:1006D40000930D0201D072CF00E010E020E030E082
:1006E4000895AFD100871187228733870895013099
:1006F40020E0120714F401E010E003D000AF11AFC2
:100704000895EBEBF1E008950093F90108950F705B
:1007140011F401E003C0093008F008E000930C0272
:1007240008959298A99800E00093F60108959D0118
:10073400E8DF04AD053071F415AD01E01027DF01E9
:10074400DD961C93112319F0969A979802C09698F7
:10075400979A939801E003AFD901089500E0AEDFC2
:100764000083018308E00093F6010895CADF06A917
:1007740017A94BEF5FEF58C90091F601063011F449
:1007840001E0089500E008950CDF008F118F228F9F
:10079400338F448F558F668F778F008B118B228B0D
:1007A400338B448B558B668B778B9CDF44875587C3
:1007B4006687778700E000A301A302A303A304A331
:1007C40005A306A307A30895FA92EA92DA92AAD19E
:1007D4007A926A925A924A92DFDE6C9700910C02E6
:1007E40014E0019FF001EE5DFF4F059115912591F5
:1007F40034912AD188249924AA24BB24CC24DD242E
:10080400EE24FF248BEB91E00091F7010023E9F043
:100814000A9591F0015078F00350B8F001F10A956F
:1008240009F44AC00A9509F44EC00A9509F455C062
:100834000A9509F45CC064C004D17AD178DEA0E8DA
:10084400B1E033D1FC0179D13CC0FC0180809180BE
:10085400A280B380C480D580E680F78051C0FC01BB
:1008640044A455A466A477A4042D052906290729C0
:1008740009F44EC000A911A922A933A9402F412B84
:10088400422B432B09F444C0040D151D261D371DAE
:100894004801590142E050E0E5D018D182019301AA
:1008A400472D46DEA0E9B1E0FAD0E7D0FE01D8D961
:1008B400DE011896D0D905C0FC0175DEA8E9B1E0C7
:1008C40015D9C7D01DC0FC0180849184A284B3844F
:1008D400C484D584E684F78413C0FC01808891889D
:1008E400A288B388C488D588E688F78809C0FC0143
:1008F40080A091A0A2A0B3A0C4A0D5A0E6A0F7A018
:10090400ADD0E8E6F1E0DED91CF4F3D0BAD902C0E8
:10091400F0D0A6D9E9D09DD0A1D0E0EAF1E0D2D9B7
:1009240034F00FEF802E902EA02E0FE709C0E8EAD6
:10093400F1E0C8D934F401E0802E9924AA2400E817
:10094400B02E00910D02023008F464C000910E0232
:1009540014E0019FAFE0B2E0A00DB11D0D911D9117
:100964002D913C911397B2D068D0888A998AAA8A2B
:10097400BB8ACC8ACD8ACE8ACF8A63D014DEFE01AC
:1009840080D999D072D070966BD942DE8D929D92A7
:10099400AD92BC920585069510E0088319831A83ED
:1009A4001B831C831D831E831F830585088B198B62
:1009B4001A8B1B8B1C8B1D8B1E8B1F8BBED094D054
:1009C400C801D9013ED00685039506871585011710
:1009D40010F000E0068740E12CD08C015BD8AC011C
:1009E400BD01400F511F621F731F481559056A0549
:1009F4007B055CF0AC01BD01401B510B620B730B1A
:100A040084169506A606B7061CF410D0D7DD02C0DE
:100A14004C015D010BD06C9625DE4990599069908C
:100A240079906FDDD990E990F9900895840195014A
:100A3400089550E060E070E00895CB2CCC0CCC0815
:100A44000895E0E0F2E00895088F198F2A8F3B8F14
:100A54000895480159016A017B010895E7DFA60161
:100A6400B701089560E070E015C8088519852A85E6
:100A74003B854C855D856E850895DFDF8886998684
:100A8400AA86BB86CC86CD86CE86CF860889198970
:100A94002A893B894C895D896E897F89089526D886
:100AA40036D05D8B6E8B7F8B089520D817D05D83F5
:100AB4006E837F83089504D05D876E877F87089552
:100AC400088719872A873B874C870895432F440F4B
:100AD400440B04D04D834E834F83089508831983B8
:100AE4002A833B834C830895E6DFBFDFDE01509603
:100AF400B2C842E09EDF11D0CDD7E8DF0ED084DD4E
:100B040006D04D8B4E8B4F8BA9DFFE010895088BC9
:100B1400198B2A8B3B8B4C8B0895088D198D2A8D4C
:100B24003B8D0895CA92BA92AA929A928A92089593
:100B34000085118522853385089535DDFE0190C831
:100B44000C01FA016AE070E071936A95E9F780E2BA
:100B5400932F990F90E0991F000F111F221F331F2D
:100B6400FA0139967AE06081660F692B90E06A3069
:100B740010F06A5F91E06F70608331977A9599F70E
:100B84008A9531F7C001089589D13ED0D1D0909192
:100B9400B9030EE044D020919F030091A0030634D2
:100BA400A1F00237D9F0235481F0235071F02A9533
:100BB40079F02A9569F0245059F0245049F02250D4
:100BC40051F02A9511F0235149F406E410E008C0CD
:100BD4000AE410E005C00EE410E002C002E510E0F3
:100BE40037D001E07BD180E0AFE9B3E004C08830C6
:100BF40011F409E073D10D917ED183958031B8F35E
:100C04009093B90397D68FC0EFE9F3E000E110E2C7
:100C140011930A95E9F700E00093B90308950023BE
:100C240011F401E003C0013108F000E10A950093DA
:100C3400B90308952091B903203148F4F0E0E22F7C
:100C44008BD00083EFE9F3E0028D0395028F0895C2
:100C54009A938A93C80103C00591CF01EBDFFC018D
:100C640004910023C9F789919991089561D0902F37
:100C7400A12F8A019B01B0E0AA959A95892F9A9594
:100C8400772342F410952095309501951F4F2F4FEF
:100C94003F4FB1E04FEA53E053DF00E0EFEAF3E007
:100CA40004C01191112321F403950917D0F371F0B5
:100CB400092F9A30C0F51DE240D021F41EE24AD03B
:100CC4001083839503950A3070F5F5CF10E2092F50
:100CD4009A3048F52FEA33E050E0290F351FF90127
:100CE4005081BB2369F0103259F4552311F40A17CB
:100CF40059F44DE2F0E0E82FE256FC4F408302C085
:100D0400103221F4552311F40A1711F4152F105D34
:100D140014D021F44EE21ED04083839503952F5FB7
:100D24003F4F0A30E0F289919991A991B9910895C0
:100D3400BA93AA939A938A930895E82FF0E0E15620
:100D4400FC4F108383950A170895F0E0E02F04D038
:100D540000810895E82FF0E0E156FC4F089500E08B
:100D64000093BC0308950FEE28E0C59807FB16F422
:100D7400C49A01C0C498000FC59AB29901602A951B
:100D8400A1F700950F700895BA93AA93002309F46C
:100D940050C0AAEBB3E00091BF03002321F01596E5
:100DA4000A950C9315970D911C911197012B29F01D
:100DB4000D91015010401C930E93D5DF202F00910C
:100DC400BD032017E1F00091BE03201731F02093FA
:100DD400BE0304E60093BF032CC00091BF030023AD
:100DE40041F5222331F000E416E00D931C93209387
:100DF400BC032093BD0300E00093C0031AC00D910F
:100E04001C911197013030E0104099F42068209330
:100E1400BC030091C003003148F408E611E00D93CF
:100E24001C9315960C9103950C9303C008E70D933E
:100E34003C93A991B99108950093BC03089500913E
:100E4400BC0310E01093BC03089515E0C59804FB9F
:100E540016F4C49A01C0C498000FC59A1A95B1F744
:100E6400C39AC49A05E00A95F1F70000C39808955F
:100E7400202F212B69F02FEC37E021503040E9F787
:100E840000C00000A89501501040202F212B99F795
:100E9400089501E029D005E010E0EACFC3981BD003
:100EA40014D000E321D008EC00000A95E9F70DD036
:100EB40000E210D008E20ED006E00CD0EADF0BD03E
:100EC4000CE012D00FE010E0D3CF00E30DD005E02A
:100ED40010E0CECF09D00FE010E0CACF0A95083059
:100EE40010F00770006400688A93802F02950F70D9
:100EF40009D08F700DC08A93802F0295006102D0B3
:100F0400806106C0A2DF0AE10A95F1F700C00895E6
:100F1400082F9BDF05E80A95F1F7000089910895F1
:100F240012D017D023D00CD95DD078942CD0009354
:100F3400C2031CD90091C2038FD00091C2030023C5
:100F4400A9F3A895F3CFA89508E101BD0EE001BD72
:100F5400089509E307BB0EEF08BB0EE304BB0DE5E0
:100F640005BB0EEC01BB03E302BB08950CE005BD19
:100F74000EE303BD00E808BF09B7006809BF01E03C
:100F84000093C10308951FB7F8940091C10300238F
:100F940000E019F00093C10301E01FBF0895FA9324
:100FA400EA932A931A930A932FB701E00093C1039B
:100FB4000091F2031091F303012B69F0AA9B02C084
:100FC400AA9809C0AA9AE2EFF3E0008111810150C6
:100FD4001040008311832FBF099119912991E99140
:100FE400F991189500D48A93CFDD37D4B8DEFED3B7
:100FF400C9F0ADECB3E0E6E5F0E009E03496A4D145
:1010040035964D935D936D937D930A95B9F7C4D34B
:1010140042E050E01AE005E8D7D44F5F5F4F1A95DD
:1010240081F0FACFEDECF3E06CE070E089E0AB0125
:10103400B9D401931193219331936C5F7F4F8A95B7
:10104400B1F7DAD374DBE3ECF3E000E00383078366
:10105400008701E0028348C0C6D38A93802F07D457
:10106400082F92DEA3ECB3E0882351F00D911C917C
:101074001197012B29F00D91015010401C930E93F0
:10108400DEDEB4D007FF02C001E001C000E000933F
:10109400C90315960C910F770C9329F00091C9039D
:1010A400002309F44ED41091C5030091C603101710
:1010B40011F001E001C000E01A9539F01A9539F0F9
:1010C4001A9539F01A9539F007C012D005C02BD003
:1010D40003C093D001C0BDD00091C903002321F403
:1010E4001FD0002309F037D48991A991B9910895AB
:1010F400AAD051F026D406E092DD02EC10E0A8DD7F
:1011040045DD08E813E197D00BD0002329F000E077
:101114000D930C936BD002C06CD009F487D0E5CF4B
:101124000091C80308958FD051F00091CD0311D1DF
:1011340004EF11E00D931C930091C5030DC00091C1
:10114400CA03002359F055D049F41091CB0301E0B0
:1011540010271093CB0300E00093C6030DDB00239C
:1011640009F0EED0DDDF013061F40091CA03002301
:1011740000E051F00093CA030093CB03D8DAE0D027
:1011840032C0093029F406E00093C70304E029C003
:10119400083079F41091CA0301E010271093CA03B0
:1011A4001093CB0311F0BDDA02C0EEDAC0DAC8D076
:1011B4001BC00023D1F0D2D10023B9F00091CC039D
:1011C400A6DA0091CC0342E050E0EDECF3E00080BD
:1011D4001180400D511DF8D3B3D0A2DF063019F4AD
:1011E40003E00093C50300E001D07FCF0093C80360
:1011F40008950D911C91012B089525D089F004DDEB
:10120400ABD119960C91199707FF03C009EC10E0B4
:1012140002C001ED10E01CDDB9DC00EA1FE00BD0D8
:1012240000E0E4DFE6DF09F401D05FCF8AD302E017
:101234000093C50308950D931C9311970091C50362
:101244000093C6030895BA93AA93A3ECB3E00023D2
:101254000895F9DF79F065DA0091C70323D100918D
:10126400C703053031F47ADA08E512E00D931C93D4
:101274001197E4DF0091C703053041F42D913C91AF
:101284001197232B19F410E01093C6031091C8038F
:10129400113051F4053020F018E01093C80314C045
:1012A400149603950C9349C0123029F410E093D19D
:1012B400002339F444C0143029F411E08CD1002304
:1012C400F1F13BC0183081F4073011F0083021F4FB
:1012D40016E01093C80320C05FD28ED228DA02E051
:1012E4000093C50300E02AC01930A1F4202F30E098
:1012F4000CE0029FF001E65AFF4F26D0220F331F65
:10130400220F331FF901E353FC4F4083518362835F
:10131400738313C0163099F4033011F407E00BC043
:10132400063011F408E007C0073011F403E003C0ED
:10133400083029F406E00093C70302D057DFD5CE66
:1013440000E00093C6030895459155916591749109
:1013540008959BD0402E58DC0091CB03002351F418
:1013640001E0401619F406E665DC04C004E0409E82
:10137400EBD06EDC29DAC801D901FED9002309F0CB
:10138400D6D91091CC031F771395042D035028F060
:10139400025019F00A9589F020C003E0442421EE9C
:1013A400522E25EF622E25E0722E2FEF822E29EC8D
:1013B400922E2AE9A22E2BE31FC005E020E4422E40
:1013C40022E4522E2FE0622E77242FE7822E26E984
:1013D400922E28E9A22EBB2410C004E020E8422E5D
:1013E40026E9522E28E9622E77242FEF822E20EE52
:1013F400922E25EFA22E25E0B22EABD037DCC6DB31
:10140400E3ECF3E0018507FF33C0BB236AF08415E6
:101414009505A605B70514F402E0A0D08816990630
:10142400AA06BB06FCF41CC05094609470940FEFA1
:101434004194500A600A700A481659066A067B06E7
:1014440014F402E08BD09094A094B0940FEF8194A4
:10145400900AA00AB00A88159905AA05BB0514F4D8
:1014640004E07CD0E3ECF3E00185006801874FD908
:1014740089919991A991B9914990599069907990DC
:1014840089909990A990B9900895BA92AA929A9243
:101494008A927A926A925A924A92BA93AA939A93A5
:1014A4008A930895F9DF402EAFDB842D90E002E0AB
:1014B40011E025E0249D000D111DCADB880F991F42
:1014C400880F991FFC01E353FC4F88D1042D44205D
:1014D400E9F00A9579F00A9569F00A9579F00A9588
:1014E40049F00A95C1F00A9569F00A9539F00A9510
:1014F40049F024C02ED010E006E01BC02AD019E029
:1015040005E017C026D016E002E013C025D004E0A1
:10151400809F1AD012C020D0882369F00FE211E016
:1015240097DB24D9A801612F660F660B762F10E094
:1015340008E09CDB03C003E311E08ADB27DB89912D
:101544009991D3DD499008950AED10E0000D111D25
:101554000895AC01BD01089505E061CB102F009002
:10156400CC03002D0F7707FE02C021E001C020E06C
:10157400123019F420E00A9509C0143019F420E05F
:10158400039504C0163011F411E02127093008F046
:1015940008E04091CD03435028F0425019F04A9599
:1015A40029F008C0002349F401E007C0033028F4FF
:1015B40003E003C0023008F402E0222311F020E823
:1015C40001C020E0022B001611F400E008950093FE
:1015D400CC0301E00895FA92EA92DA92CA9255DFB6
:1015E40024971801402E55240DEC602E03E0702E34
:1015F4008201CFD0CED0F301E00FF11F0081118121
:101604002281338181E090E0A0E0B0E06CE0629D53
:10161400E6E5F0E0E00DF11DC590D590E590F4907D
:10162400359692DE488359836A837B8343E024168C
:1016340031F4F301848D958DA68DB78D08C046E0F5
:10164400241629F4F30180A191A1A2A1B3A133200E
:10165400A1F49095A095B09581959F4FAF4FBF4F42
:10166400C016D106E206F30684F000E0249600DFFB
:10167400C990D990E990F9900895488159816A8177
:10168400041715072607370784F741E0241619F0D5
:1016940042E0241691F53320B9F00230150551F0DB
:1016A4000431150539F0083C150521F0003D27E00B
:1016B400120741F425E0219F302D209F310D002D8C
:1016C400132F13C066D014C00530150559F002332A
:1016D400150541F0043F21E0120721F0083823E109
:1016E400120719F456D045E001C042E050E09CD105
:1016F400212F220F220B322F3FC047E0241619F06E
:1017040048E02416C9F433204AE089F0439F702D41
:10171400429F602D710D419F502D610D751D409F9D
:10172400510D651D751D002D152F9B0125C050E021
:1017340060E070E0AFD120C0480159010ADFAAD1AE
:1017440084019501041B150B260B370B080F191F79
:101754002A1F3B1F488159816A817B8140175107A9
:101764006207730714F48A019B010C151D052E05ED
:101774003F0514F486019701440C551C440C551C78
:10178400640C751CF301008311832283338301E00D
:101794006DCF000F111F089526D01C016CE070E07E
:1017A400EDECF3E009E0102E19D0AB01FBD00817E3
:1017B40019072A073B0721F08C019D01AB010FD1CA
:1017C40034966C5F7F4F1A9479F710D029F00EEDA0
:1017D4001EEB40E050E0FCD0C10187CC80819181B8
:1017E400A281B3810895BA93AA93089540E050E08A
:1017F400D4D00E3D1E4B0895F6DFADECB3E00D9151
:1018040013961BD722D0129632D70D91139659D71F
:101814001FD067D71AD012966AD71AD0012B022B81
:10182400032B11F001E001C000E06ED70ED02D9122
:101834003C915B97F8D642E050E007D0400F511F2F
:10184400A9D00093CC0363D750CC0D911D9108957A
:101854000D911D912D913D91089509E109B900E083
:1018640000BD08E90AB902E10093F10308950023D9
:1018740021F10091F103002331F401E0F5DF00E0F0
:1018840064DA0CB908950231C0F45E9B16C000E41A
:101894000BB90091F103003121F40DE00CB901E121
:1018A40005C0013121F40AE00CB902E1DDCF102FAB
:1018B40013951093F10349DA0CB908958A93FA93B6
:1018C400EA933A922A921A920A927A936A935A93D0
:1018D4004A933A932A931A930A938FB71CB100E060
:1018E400115499F0125099F01A9559F0175059F073
:1018F400125019F0185019F00BC001E009C004E0AF
:1019040007C002E005C008E003C006E001C009E02A
:1019140093DA8FBF0991199129913991499159917C
:10192400699179910990199029903990E991F991E7
:10193400899118950091F103023111F400E094DFCC
:1019440008952FB7F89404E610E0E2EFF3E0008383
:1019540011832FBF08952FB7F8940CE211E0F5CF4F
:1019640000008895FECF0FE50DBF01E00EBFC0EE6D
:10197400D0E0B9D1002309F0C6D1D2DAF1DFF0CF3B
:10198400E199FECF08954F5F5F4FFADF4EBB5FBB17
:10199400E09A0895FADF0DB30895F7DF0DB3F3DF8E
:1019A4001DB30895F2DF0DB3EEDF1DB3ECDF2DB3ED
:1019B400EADF3DB308954F5F5F4F4EBB5FBBF894C2
:1019C400E29AE19A0FBE08950FB6DADF0DBBF5CFA8
:1019D4000FB6D6DF0DBBF1DFD3DF1DBBECCF0FB6E7
:1019E400CFDF0DBBEADFCCDF1DBBE5DFC9DF2DBBDD
:1019F400E2DFC6DF3DBBDFCF00241124EFE0001F90
:101A0400111F001C111C0416150610F0041A150AE7
:101A1400EA95AAF7001F111FA001009510950895DB
:101A24005195419550400895FF27552312F4F160D4
:101A3400F7DF112312F4F09506D0DEDFF0FD03D0BA
:101A4400F1FDEECF089511950195104008950024FD
:101A540011241001E0E2EA9592F0001F111F221FE9
:101A6400331F001C111C221C331C041615062606E9
:101A7400370688F3041A150A260A370AECCF001F22
:101A8400111F221F331FA001B1010095109520954D
:101A940030950895FF27772312F4F16014D033238F
:101AA40012F4F09508D0D3DFF69508F404D0F69537
:101AB40008F409C0089530952095109501951F4F9D
:101AC4002F4F3F4F089570956095509541955F4F06
:101AD4006F4F7F4F0895AF93BF93D80101900D923C
:101AE40041505040D9F7BF91AF9108958A939A938A
:101AF4004A925A926A92AA93BA930024112410012A
:101B04002001F00188E06D9098E0662049F4762F7A
:101B1400652F542F432F322F212F102F002714C04D
:101B2400669440F4000E111E221E331E441E551EE0
:101B3400E61FF71F000F111F221F331F441F551FDD
:101B4400661F771F9A9561F78A95E9F680019101DE
:101B5400A201BF01B991A9916990599049909991B5
:101B6400899108954A928A939A93AA93BA938D91EC
:101B74004D90ED91FD910D901D902D903C90089508
:101B840009911991299139914991599169917991C1
:101B9400001F111F221F331F441F551F661F771F6D
:101BA40000951095209530954095509560957095C9
:101BB400B991A99199918991499008950F931F938F
:101BC4002F933F934F935F936F937F930027112736
:101BD4009801A801B801B7E0A8E09F91AA95DAF0AE
:101BE400991F001F111F221F331F441F551F661FFB
:101BF400771F081714052E073F0740055105620596
:101C0400730560F3081B14092E0B3F0B400951099F
:101C140062097309E3CF9A93A8E0BA95EAF60895A6
:101C2400A1DF992733208AF491604094E095F095E0
:101C340000941094209430948195BFEF4B0AEB0BE1
:101C4400FB0B0B0A1B0A2B0A3B0A772312F4909511
:101C540029D090FBB3CFE4DF93DF0EF423D00895B3
:101C64008081080F8181181F8281281F8381381F7A
:101C74008481481F8581581F8681681F8781781F4A
:101C840008958081081B8181180B8281280B838130
:101C9400380B8481480B8581580B8681680B8781BA
:101CA400780B089510952095309540955095609542
:101CB400709501951F4F2F4F3F4F4F4F5F4F6F4F01
:101CC4007F4F089580810817818118078281280732
:101CD400838138078481480785815807868168078E
:101CE40087817807089501E0089520E006D0E9F798
:101CF4000895259102D0E9F708952D9301501040DD
:101D0400202F212B089587E391E0FC010591149184
:101D1400FC013296A591B491FC013496259134913D
:101D2400422F432B19F0F901E4DF01C0DEDF0696F0
:101D340011E08334910748F3089564000000000023
:101D4400000000000000000000000A000000000085
:101D54000000047DC1250200000000E1F50500003B
:101D64000000CCCCCCCCCCCCCC0C00CA9A3B000030
:101D7400000060EA00000000000000000080000095
:0A1D8400000001000080FFFFFFFFD8
:00000001FF
:00000001FF
