:100000003FCD189518955AC81895189518951895B4
:10001000A4C191C11895DFCC18951895189518951D
:100020001895189518950A00000064000000E80370
:10003000000010270000A086010040420F008096BB
:10004000980000E1F5056B487A006D73200072702E
:100050006D0020202000EE602F6DE1CDCF68EFED28
:10006000EBC78E678F8BCEE3864347AB0387460192
:100070000000000000000000000900000001000076
:1000800000E803000010270000010000000100004C
:100090000064000000C1BDF0FF000000003F420FFF
:1000A000000100000001000000E803000000000063
:1000B000000100000001000000809698000020A1CF
:1000C00007FFC99A3B010000000A000000A086015A
:1000D00000010000000100000000E1F50546432D8D
:1000E000353130004175746F204F6E004175746F6B
:1000F000204F6666004620200046494600502020DA
:1001000000484920004C4F200044202000526F74CA
:100110000046482000464C200064462000496E649A
:100120002000476174650041766720004946202021
:10013000005072652000496E74200043202020008A
:10014000532020200053202020004F6E20004F66B7
:1001500066000008FE07FE07FE07FE07FE07FE0713
:10016000FE07FE07FE07FE07FE07FE07FC07FE0769
:10017000FE07FE07FE07FE07FE07FE07FE07FE0757
:10018000FE07FE07FE07FE07FE07FE07FE07FE0747
:10019000FE07FE07D807FE07DC07DE07FE07E207BB
:1001A000E407E607E807FE07FE07EA07FE07FE0783
:1001B000EE07F207FE07F407F607FE07FE07FE0745
:1001C000FE07FE07FE07FE07FE07FE07FE07FE0707
:1001D000FE07FE07D807DA07FE07DE07E007E2079B
:1001E000FE07FE07FE07FE07FE07FE07FE07EC07F9
:1001F000F007F207FE07F407FE07F807FA074502C3
:10020000B001000050006001541E00E808B906E08B
:1002100003BF0EBD05E008BF09B7056009BF19D3CC
:1002200008EC10E0B0D20483158301E00093F501DF
:100230001093F6010895BA93AA93002309F451C0CC
:10024000A2D259D021F000810150104058D2ABEB1E
:10025000B1E00091F601102F1A9559F01A9571F03E
:100260001A95A9F01A95C9F01A95E9F01350D1F131
:100270002FC00481158143D202E023C03CD089F510
:1002800035D04ED0929A7FD238D203E01AC0B19BBB
:100290001BC0A99A32D204E014C02DD011F5929857
:1002A0002CD205E00EC0B1990FC0A9988BD06BD0AD
:1002B000FD0126A937A9200F311F26AB37ABA7D0E8
:1002C00006E00093F6010DC020813181232B11F04F
:1002D000073039F49298A99800E0FD0110D006E0AB
:1002E00003AF27C2A99A02D0A998F9CF4CD0FD013B
:1002F00006AB17AB089500811181012B089500AB67
:1003000001AB02AB03AB04A705A706A707A70083B1
:10031000018302830383048305830683078308958F
:10032000AC9800E002BF0DBD0CBD6ED00087018708
:100330000287AC9A0895FA93EA9374D12FB764D0E8
:10034000008511850F5F1F4F008711872FBF09910F
:1003500019912991E991F991189565D11FB70091EB
:10036000BA0103950093BA011FBF0991199118951D
:1003700000E028E00695C09A00C0C098B1990068D6
:100380002A95C1F708956ED180E090E0A5E0C8DF1E
:10039000AD9A13D0AD9811D0AB98EADFE9DFE8DF72
:1003A000AB9A102F110F110B800F911FAA9579F79F
:1003B0008C0189919991A991089505E80A95F1F721
:1003C000000008954A928A93AB98D2DF402ED0DF86
:1003D000802FCEDF102F110F110BF8D104AB15AB0E
:1003E000AB9A12D02085318542B74482458326835B
:1003F000378372850CB51DB5E9D180A701A712A777
:1004000073A7899149900895E0EBF1E00895EFD347
:1004100028D1A097989B04C0D9D1A0ADB1AD02C09E
:10042000A1E0B0E0F1DF2AD1EED02B2F220F220B7A
:10043000A88FB98F2A8F2B8F2C8F2D8F2E8F2F8FD8
:10044000C5D100A511A522A533A53DD11896DBDBAA
:10045000DE01589689D3D8DF048115812681378142
:100460004091F8014423B2D129F004A715A726A78B
:1004700037A704C000AB11AB22AB33ABBDD0A0E6B5
:10048000B1E078D39091F7010091F9010023C9F010
:100490009330B9F09430A9F099D144A955A9652FAA
:1004A00055D146A957A9519541955040652F660FE2
:1004B000660B762F7CDBA7D096D0FE0138965DDCEC
:1004C0005AD300E083D123DF933021F0943011F030
:1004D000923049F508EE802E03E0902EAA24BB242A
:1004E0003AD3AAD029F446C07ED096D044D374D053
:1004F00090D0E8E7F1E0A3D014F4ACD0ACF789D009
:10050000A0E8B1E08CD03CD3FDD2888E998EAA8E23
:10051000BB8ECC8ECD8ECE8ECF8E0CD37F854BD323
:10052000DE01589624C000E8802E06E9902E08E9E6
:10053000A02EBB2458D080D029F41CC00CD36CD082
:1005400014D34AD008D366D0E8E8F1E078D014F4A8
:1005500081D0A4F7F7D2DE010BDCDBD24C8F5D8FAC
:100560006E8F7F8F3FD34C8D5D8D6E8D18964BDBDC
:100570002DD1B5D07BD0709632DC1CF48F0126D102
:1005800022D024D13AD3448555856685778527DCEA
:100590001CF403EC11E017D069D07896FFDB16D17C
:1005A00000A311A322A333A344A355A366A377A357
:1005B0000091F501002321F04CD100E00093F501FA
:1005C000A096B5D003C048E050E012CB8990999036
:1005D000A990B990C99008954AE090D28CD2E7DAF8
:1005E000480159010895088119812A813B814C8174
:1005F0005D816E817F810895432F440F440B542FFA
:10060000642F742F089565D0C0D24D874E874F87D1
:100610000895E9DF0BD006C004D0A0E7B1E011D007
:10062000F2CA04D02A931A930A9308957A936A938C
:100630005A934A933A930895F4DFE8E6F1E001D043
:10064000CECB21961991299139914991599169916E
:100650007991089502E0801600E09006A006B006A9
:100660000895BA93AA939A938A930895EBEBF1E0D5
:1006700005D044815581668177810895008111817B
:10068000228133810895BA93AA93289700900D028E
:10069000002049F0EFE0F2E0402D01931193219307
:1006A00031934A95D1F740E040930E020882498386
:1006B0004A834B834C834D834E834F8304D0A3DA0C
:1006C0000CD0289636C005D0542F642F742FDE012D
:1006D0000895432F440F440B0895E0E0F2E00083B7
:1006E00011832283338344835583668377830895FC
:1006F0008BDE05D02283338308950281138100832A
:1007000011830895BA93AA9361D0DF01DC960C930C
:10071000033011F4969A05C00430969811F4979A14
:1007200001C0979893983DD0EADDADDF02C0899172
:100730009991A991B9910895A801612F07D044EF2B
:1007400051E0F5D120D0028313830895660F660B24
:1007500008EE13E02224169F302D069F300D159FC2
:10076000202D310D069F200D311D149F102D210DC0
:10077000321D059F100D211D321D049F002D110DEE
:10078000221D321D0895EAEFF1E00895002311F4CF
:1007900001E003C0053608F004E600930D0201D025
:1007A00072CF00E010E020E030E00895AFD1008784
:1007B0001187228733870895013020E0120714F44F
:1007C00001E010E003D000AF11AF0895EBEBF1E0D2
:1007D00008950093F90108950F7011F401E003C02A
:1007E000093008F008E000930C0208959298A99847
:1007F00000E00093F60108959D01E8DF04AD0530A7
:1008000071F415AD01E01027DF01DD961C93112373
:1008100019F0969A979802C09698979A939801E043
:1008200003AFD901089500E0AEDF0083018308E043
:100830000093F6010895CADF06A917A94BEF5FEFF1
:1008400080C90091F601063011F401E0089500E03E
:1008500008950CDF008F118F228F338F448F558FB7
:10086000668F778F008B118B228B338B448B558B4C
:10087000668B778B9CDF448755876687778700E098
:1008800000A301A302A303A304A305A306A307A334
:100890000895FA92EA92DA92AAD17A926A925A92D8
:1008A0004A92DFDE6C9700910C0214E0019FF00188
:1008B000EE5DFF4F05911591259134912AD1882441
:1008C0009924AA24BB24CC24DD24EE24FF248BEB22
:1008D00091E00091F7010023E9F00A9591F00150B1
:1008E00078F00350B8F001F10A9509F44AC00A956E
:1008F00009F44EC00A9509F455C00A9509F45CC084
:1009000064C004D17AD178DEA0E8B1E033D1FC0133
:1009100079D13CC0FC0180809180A280B380C480EA
:10092000D580E680F78051C0FC0144A455A466A49C
:1009300077A4042D05290629072909F44EC000A92A
:1009400011A922A933A9402F412B422B432B09F493
:1009500044C0040D151D261D371D4801590142E0F4
:1009600050E0E5D018D182019301472D46DEA0E981
:10097000B1E0FAD0E7D0FE0100DADE011896F8D92E
:1009800005C0FC0175DEA8E9B1E03DD9C7D01DC0A6
:10099000FC0180849184A284B384C484D584E684D9
:1009A000F78413C0FC0180889188A288B388C4882A
:1009B000D588E688F78809C0FC0180A091A0A2A094
:1009C000B3A0C4A0D5A0E6A0F7A0ADD0E8E6F1E0C2
:1009D00006DA1CF4F3D0E2D902C0F0D0CED9E9D0C7
:1009E0009DD0A1D0E0EAF1E0FAD934F00FEF802EEB
:1009F000902EA02E0FE709C0E8EAF1E0F0D934F418
:100A000001E0802E9924AA2400E8B02E00910D0266
:100A1000023008F464C000910E0214E0019FAFE0C0
:100A2000B2E0A00DB11D0D911D912D913C91139738
:100A3000B2D068D0888A998AAA8ABB8ACC8ACD8AA1
:100A4000CE8ACF8A63D014DEFE01A8D999D072D0A5
:100A5000709693D942DE8D929D92AD92BC9205859F
:100A6000069510E0088319831A831B831C831D835A
:100A70001E831F830585088B198B1A8B1B8B1C8B80
:100A80001D8B1E8B1F8BBED094D0C801D9013ED0C8
:100A90000685039506871585011710F000E0068787
:100AA00040E12CD08C0183D8AC01BD01400F511F17
:100AB000621F731F481559056A057B055CF0AC0180
:100AC000BD01401B510B620B730B84169506A606E5
:100AD000B7061CF410D0D7DD02C04C015D010BD06D
:100AE0006C9625DE49905990699079906FDDD99088
:100AF000E990F990089584019501089550E060E02F
:100B000070E00895CB2CCC0CCC080895E0E0F2E026
:100B10000895088F198F2A8F3B8F08954801590136
:100B20006A017B010895E7DFA601B701089560E03F
:100B300070E03DC8088519852A853B854C855D8513
:100B40006E850895DFDF88869986AA86BB86CC8667
:100B5000CD86CE86CF86088919892A893B894C891A
:100B60005D896E897F8908954ED836D05D8B6E8BF6
:100B70007F8B089548D817D05D836E837F83089557
:100B800004D05D876E877F870895088719872A8735
:100B90003B874C870895432F440F440B04D04D836B
:100BA0004E834F830895088319832A833B834C83A4
:100BB0000895E6DFBFDFDE015096DAC842E09EDF2F
:100BC00011D0F5D7E8DF0ED084DD06D04D8B4E8BEB
:100BD0004F8BA9DFFE010895088B198B2A8B3B8B65
:100BE0004C8B0895088D198D2A8D3B8D0895CA92DE
:100BF000BA92AA929A928A920895008511852285C6
:100C00003385089535DDFE01B8C80C01FA016AE0AC
:100C100070E071936A95E9F780E2932F990F90E065
:100C2000991F000F111F221F331FFA0139967AE016
:100C30006081660F692B90E06A3010F06A5F91E086
:100C40006F70608331977A9599F78A9531F7C00173
:100C50000895E1D161D0AA939A938A93A091B903A0
:100C60000EE069D020919F030091A0030634A1F00B
:100C70000237D9F0235481F0235071F02A9579F08E
:100C80002A9569F0245059F0245049F0225051F02F
:100C90002A9511F0235149F406E410E008C00AE453
:100CA00010E005C00EE410E002C002E510E05DD0E7
:100CB00001E0B5D180E090E00091BA03801709F41B
:100CC0008395282F30E0E02FF0E031972E173F0773
:100CD00041F4E02FC0D000810D3219F40DE283956C
:100CE00008C0B8D000818395992319F4063609F419
:100CF00006EC803130F4AED010811E3211F4005871
:100D0000839590D193959A30B8F2A093B9039FD66A
:100D100089919991A99108959D01EFE9F3E0DF018F
:100D200000E110E21D930A95E9F700E0028F00E16F
:100D3000038FD9010895002311F401E003C00131AC
:100D400008F000E10A950093B90308952091B903D2
:100D5000203150F4F0E0E22FE156FC4F0083EFE940
:100D6000F3E0028D0395028F08959A938A93C80148
:100D700003C00591CF01EADFFC0104910023C9F70C
:100D8000899199910895BA93AA939A938A93902FEF
:100D9000A12F8A019B01B0E09A95AA95892F83958E
:100DA0009093BA03772342F41095209530950195DE
:100DB0001F4F2F4F3F4FB1E04FEA53E026DF00E0D7
:100DC000EFEAF3E004C01191112321F40395091710
:100DD000D0F371F0092F9A30C0F51DE240D021F414
:100DE0001EE238D01083839503950A3070F5F5CF55
:100DF00010E2092F9A3048F52FEA33E050E0290F2E
:100E0000351FF9015081BB2369F0103259F4552385
:100E100011F40A1759F44DE2F0E0E82FE256FC4FC6
:100E2000408302C0103221F4552311F40A1711F443
:100E3000152F105D14D021F44EE20CD04083839521
:100E400003952F5F3F4F0A30E0F289919991A99164
:100E5000B9910895E82FF0E0E156FC4F0895FADFCC
:100E6000108383950A170895F0E0E02FE156FC4FB8
:100E70000081089500E00093BD0308950FEE28E07F
:100E8000C59807FB16F4C49A01C0C498000FC59A10
:100E9000B29901602A95A1F700950F700895BA9351
:100EA000AA93002309F450C0ABEBB3E00091C00358
:100EB000002321F015960A950C9315970D911C911E
:100EC0001197012B29F00D91015010401C930E93A6
:100ED000D5DF202F0091BE032017E1F00091BF0362
:100EE000201731F02093BF0304E60093C0032CC009
:100EF0000091C003002341F5222331F000E416E005
:100F00000D931C932093BD032093BE0300E0009338
:100F1000C1031AC00D911C911197013030E01040AF
:100F200099F420682093BD030091C103003148F477
:100F300008E611E00D931C9315960C9103950C9304
:100F400003C008E70D933C93A991B99108950093CC
:100F5000BD0308950091BD0310E01093BD030895F3
:100F600015E0C59804FB16F4C49A01C0C498000F9C
:100F7000C59A1A95B1F7C398C49AC39A0895202FB9
:100F80002F7707FB16F411E001C010E0022F005389
:100F90000A3008F42053022F0052063578F5F2E0AB
:100FA0000F9FF001EE5AFE4F05901490F001099446
:100FB0002AE027C02BE025C02CE023C02DE021C073
:100FC0002EE01FC02FE01DC020E11BC021E119C091
:100FD00021E017C022E115C023E113C020E011C0B9
:100FE00024E10FC025E10DC026E10BC025E009C0BA
:100FF00027E107C028E105C029E103C02B3108F033
:101000002AE1F0E0E22FEA5AFF4F2491112309F080
:101010002061022F08950FE0A3DF0FE1A1CF0A9511
:101020000F709ECF8A93ABDF802F0F70006198DF27
:1010300082958F708061082F93DF8991089512D077
:1010400017D023D0E2D85DD078942CD00093C3037E
:10105000F2D80091C3038FD00091C3030023A9F3FA
:10106000A895F3CFA89508E101BD0EE001BD089554
:1010700009E307BB0EEF08BB0EE304BB0DE505BBA0
:101080000EEC01BB03E302BB08950CE005BD0EE3CB
:1010900003BD00E808BF09B7006809BF01E000937D
:1010A000C20308951FB7F8940091C203002300E023
:1010B00019F00093C20301E01FBF0895FA93EA9369
:1010C0002A931A930A932FB701E00093C203009169
:1010D000F3031091F403012B69F0AA9B02C0AA98B4
:1010E00009C0AA9AE3EFF3E000811181015010409A
:1010F000008311832FBF099119912991E991F991E9
:101100001895FED38A93A5DD35D4B4DEFCD3C9F09F
:10111000AEECB3E0E1E7F0E009E03496A5D1359616
:101120004D935D936D937D930A95B9F7C2D342E0D9
:1011300050E01AE005E8D5D44F5F5F4F1A9581F073
:10114000FACFEEECF3E06CE070E089E0AB01B7D4ED
:1011500001931193219331936C5F7F4F8A95B1F77F
:10116000D8D34ADBE4ECF3E000E003830783008795
:1011700001E0028348C0C4D38A93802F05D4082F8E
:101180008EDEA4ECB3E0882351F00D911C911197F1
:10119000012B29F00D91015010401C930E93DADEC3
:1011A000B4D007FF02C001E001C000E00093CA0311
:1011B00015960C910F770C9329F00091CA03002328
:1011C00009F44CD41091C6030091C703101711F015
:1011D00001E001C000E01A9539F01A9539F01A952E
:1011E00039F01A9539F007C012D005C02BD003C0D2
:1011F00093D001C0BED00091CA03002321F41FD0B8
:10120000002309F035D48991A991B9910895ABD003
:1012100051F024D403E08FDD0DED10E0A6DD1BDDE1
:1012200008E813E198D00BD0002329F000E00D93DB
:101230000C936BD002C06CD009F488D0E5CF00913C
:10124000C903089590D051F00091CE0312D104EF5C
:1012500011E00D931C930091C6030DC00091CB03C8
:10126000002359F055D049F41091CC0301E0102728
:101270001093CC0300E00093C703E3DA002309F0E6
:10128000EFD0DDDF013061F40091CB03002300E0FB
:1012900051F00093CB030093CC03AEDAE1D032C01F
:1012A000093029F406E00093C80304E029C008309F
:1012B00079F41091CB0301E010271093CB03109326
:1012C000CC0311F093DA02C0C4DA96DAC9D01BC09D
:1012D0000023D1F0D0D10023B9F00091CD037CDA06
:1012E0000091CD0342E050E0EEECF3E0008011808D
:1012F000400D511DF6D3B4D0A2DF063019F403E03F
:101300000093C60300E001D07FCF0093C903089586
:101310000D911C91012B089526D091F0FDDC02E087
:101320000ADD19960C91199707FF03C004EE10E02F
:1013300002C00CEE10E019DD8EDC00EA1FE00BD0DD
:1013400000E0E3DFE5DF09F401D05ECF87D302E000
:101350000093C60308950D931C9311970091C60343
:101360000093C7030895BA93AA93A4ECB3E00023B3
:101370000895F9DF79F03ADA0091C80320D100919D
:10138000C803053031F44FDA08E512E00D931C93E1
:101390001197E4DF0091C803053041F42D913C9191
:1013A0001197232B19F410E01093C7031091C90370
:1013B000113051F4053020F018E01093C90314C027
:1013C000149603950C9349C0123029F410E090D183
:1013D000002339F444C0143029F411E089D10023EA
:1013E000F1F13BC0183081F4073011F0083021F4DE
:1013F00016E01093C90320C05CD28BD2FDD902E065
:101400000093C60300E02AC01930A1F4202F30E079
:101410000CE0029FF001EB58FF4F26D0220F331F44
:10142000220F331FF901E253FC4F40835183628343
:10143000738313C0163099F4033011F407E00BC026
:10144000063011F408E007C0073011F403E003C0D0
:10145000083029F406E00093C80302D056DFD4CE4A
:1014600000E00093C70308954591559165917491EB
:10147000089598D0402E50DC0091CC03002351F405
:1014800001E0401619F406E661DC04C004E0409E69
:10149000EAD06BDCFED9C801D901D3D9002309F009
:1014A000ABD91091CD031F771395042D035028F06D
:1014B000025019F00A9591F01FC003E020E8422E77
:1014C00026E9522E28E9622E77242FEF822E20EE75
:1014D000922E25EFA22E25E0B22E1DC005E020EAB7
:1014E000422E26E8522E21E0622E77242FE3822E10
:1014F00022E4922E2FE00DC004E020E4422E22E4EC
:10150000522E2FE0622E77242FE7822E26E9922E8C
:1015100028E9A22EBB24ACD036DC9DDBE4ECF3E062
:10152000018507FF32C0BB236AF084159505A60527
:10153000B70514F402E09FD088169906AA06BB06E8
:10154000F4F41BC050946094709441945708670859
:101550007708481659066A067B0614F402E08BD019
:101560009094A094B0940FEF8194900AA00AB00ACE
:1015700088159905AA05BB0514F404E07CD0E4ECB9
:10158000F3E001850068018727D989919991A99194
:10159000B991499059906990799089909990A990C2
:1015A000B9900895BA92AA929A928A927A926A927D
:1015B0005A924A92BA93AA939A938A930895F9DF1A
:1015C000402EAADB842D90E00DE111E025E0249D62
:1015D000000D111DCADB880F991F880F991FFC0190
:1015E000E253FC4F88D1042D4420E9F00A9579F0AC
:1015F0000A9569F00A9579F00A9549F00A95C9F0BB
:101600000A9569F00A9539F00A9549F026C030D05C
:1016100010E006E01DC02CD019E005E019C028D06C
:1016200016E002E015C005E086DB04E0809F1BD0D9
:1016300013C005E080DB882369F00AE411E095DB44
:10164000FAD8A801612F660F660B762F10E008E02C
:101650009ADB03C00EE411E088DBFDDA89919991F1
:10166000D3DD4990089505EF10E0000D111D089598
:10167000AC01BD010895102F0090CD03002D0F7710
:1016800007FE02C021E001C020E0123019F420E082
:101690000A9509C0143019F420E0039504C01630EF
:1016A00011F411E02127093008F008E04091CE0341
:1016B000435028F0425019F04A9529F008C00230F2
:1016C00048F402E007C0043028F404E003C003300B
:1016D00008F403E0222311F020E801C020E0022BEF
:1016E000001611F400E008950093CD0301E0089581
:1016F000FA92EA92DA92CA9255DF24971801402EA4
:1017000055240EEC602E03E0702E8201CFD0CED097
:10171000F301E00FF11F008111812281338181E00B
:1017200090E0A0E0B0E06CE0629DE1E7F0E0E00D69
:10173000F11DC590D590E590F490359695DE4883DF
:1017400059836A837B8343E0241631F4F301848D4B
:10175000958DA68DB78D08C046E0241629F4F301B7
:1017600080A191A1A2A1B3A13320A1F49095A0954D
:10177000B09581959F4FAF4FBF4FC016D106E2067F
:10178000F30684F000E0249600DFC990D990E99038
:10179000F9900895488159816A8104171507260731
:1017A000370784F741E0241619F042E0241691F53A
:1017B0003320B9F00230150551F00431150539F028
:1017C000083C150521F0003D27E0120741F425E013
:1017D000219F302D209F310D002D132F13C066D077
:1017E00014C00530150559F00233150541F0043FCA
:1017F00021E0120721F0083823E1120719F456D02E
:1018000045E001C042E050E09CD1212F220F220B85
:10181000322F3FC047E0241619F048E02416C9F4DF
:1018200033204AE089F0439F702D429F602D710D57
:10183000419F502D610D751D409F510D651D751DFA
:10184000002D152F9B0125C050E060E070E0AFD166
:1018500020C0480159010CDFAAD184019501041B65
:10186000150B260B370B080F191F2A1F3B1F48812A
:1018700059816A817B81401751076207730714F40D
:101880008A019B010C151D052E053F0514F48601E8
:101890009701440C551C440C551C640C751CF30139
:1018A000008311832283338301E06DCF000F111F6A
:1018B000089526D01C016CE070E0EEECF3E009E046
:1018C000102E19D0AB01FBD0081719072A073B07C8
:1018D00021F08C019D01AB010FD134966C5F7F4FDD
:1018E0001A9479F710D029F00EED1EEB40E050E08D
:1018F000FCD0C10189CC80819181A281B3810895FE
:10190000BA93AA93089540E050E0D4D00E3D1E4B08
:101910000895F6DFAEECB3E00D911396F3D622D026
:1019200012960AD70D91139631D71FD03FD71AD0F0
:10193000129642D71AD0012B022B032B11F001E093
:1019400001C000E046D70ED02D913C915B97D0D6D8
:1019500042E050E007D0400F511FA9D00093CD03C3
:101960003BD752CC0D911D9108950D911D912D9154
:101970003D91089509E109B900E000BD08E90AB9FF
:1019800002E10093F2030895002321F10091F20394
:10199000002331F401E0F5DF00E066DA0CB90895C8
:1019A0000231C0F45E9B16C000E40BB90091F20353
:1019B000003121F40DE00CB901E105C0013121F441
:1019C0000AE00CB902E1DDCF102F13951093F2035A
:1019D0004BDA0CB908958A93FA93EA933A922A92D1
:1019E0001A920A927A936A935A934A933A932A9351
:1019F0001A930A938FB71CB100E0115499F012505A
:101A000099F01A9559F0175059F0125019F01850D2
:101A100019F00BC001E009C004E007C002E005C0F6
:101A200008E003C006E001C009E091DA8FBF099128
:101A30001991299139914991599169917991099017
:101A4000199029903990E991F9918991189500910F
:101A5000F203023111F400E094DF08952FB7F894F7
:101A600004E610E0E3EFF3E0008311832FBF089555
:101A70002FB7F8940CE211E0F5CF00008895FECF67
:101A80000FE50DBF01E00EBFC0EED0E0B9D10023DD
:101A900009F0C6D1D4DAF1DFF0CFE199FECF089595
:101AA0004F5F5F4FFADF4EBB5FBBE09A0895FADFEE
:101AB0000DB30895F7DF0DB3F3DF1DB30895F2DF23
:101AC0000DB3EEDF1DB3ECDF2DB3EADF3DB30895B8
:101AD0004F5F5F4F4EBB5FBBF894E29AE19A0FBE37
:101AE00008950FB6DADF0DBBF5CF0FB6D6DF0DBB0D
:101AF000F1DFD3DF1DBBECCF0FB6CFDF0DBBEADFCD
:101B0000CCDF1DBBE5DFC9DF2DBBE2DFC6DF3DBBA0
:101B1000DFCF00241124EFE0001F111F001C111C57
:101B20000416150610F0041A150AEA95AAF7001F04
:101B3000111FA001009510950895519541955040B1
:101B40000895FF27552312F4F160F7DF112312F4F3
:101B5000F09506D0DEDFF0FD03D0F1FDEECF089565
:101B60001195019510400895002411241001E0E220
:101B7000EA9592F0001F111F221F331F001C111C39
:101B8000221C331C041615062606370688F3041A91
:101B9000150A260A370AECCF001F111F221F331F18
:101BA000A001B10100951095209530950895FF276B
:101BB000772312F4F16014D0332312F4F09508D097
:101BC000D3DFF69508F404D0F69508F409C008951B
:101BD00030952095109501951F4F2F4F3F4F089539
:101BE00070956095509541955F4F6F4F7F4F089569
:101BF000AF93BF93D80101900D9241505040D9F757
:101C0000BF91AF9108958A939A934A925A926A9299
:101C1000AA93BA930024112410012001F00188E056
:101C20006D9098E0662049F4762F652F542F432F4E
:101C3000322F212F102F002714C0669440F4000E7D
:101C4000111E221E331E441E551EE61FF71F000FD5
:101C5000111F221F331F441F551F661F771F9A95A0
:101C600061F78A95E9F680019101A201BF01B9915E
:101C7000A9916990599049909991899108954A92B2
:101C80008A939A93AA93BA938D914D90ED91FD9179
:101C90000D901D902D903C900895099119912991D6
:101CA00039914991599169917991001F111F221F12
:101CB000331F441F551F661F771F009510952095F1
:101CC00030954095509560957095B991A9919991ED
:101CD0008991499008950F931F932F933F934F93AA
:101CE0005F936F937F93002711279801A801B80194
:101CF000B7E0A8E09F91AA95DAF0991F001F111F85
:101D0000221F331F441F551F661F771F0817140516
:101D10002E073F07400551056205730560F3081B58
:101D200014092E0B3F0B4009510962097309E3CFD7
:101D30009A93A8E0BA95EAF60895A1DF992733208F
:101D40008AF491604094E095F0950094109420946A
:101D500030948195BFEF4B0AEB0BFB0B0B0A1B0A70
:101D60002B0A3B0A772312F4909529D090FBB3CF2E
:101D7000E4DF93DF0EF423D008958081080F818182
:101D8000181F8281281F8381381F8481481F858105
:101D9000581F8681681F8781781F08958081081BDE
:101DA0008181180B8281280B8381380B8481480B39
:101DB0008581580B8681680B8781780B0895109573
:101DC00020953095409550956095709501951F4FE1
:101DD0002F4F3F4F4F4F5F4F6F4F7F4F0895808181
:101DE0000817818118078281280783813807848139
:101DF0004807858158078681680787817807089595
:101E000001E0089520E006D0E9F70895259102D079
:101E1000E9F708952D9301501040202F212B0895AC
:101E20008EEF91E0FC0105911491FC013296A59191
:101E3000B491FC01349625913491422F432B19F033
:101E4000F901E4DF01C0DEDF069612E08A30910777
:101E500048F3089564000000000000000000000046
:101E6000000000000A00000000000000047DC12501
:101E70000200000000E1F50500000000CCCCCCCC55
:101E8000CCCCCC0C00CA9A3B0000000060EA0000F9
:101E90000000000000000080000000000100008041
:041EA000FFFFFFFF42
:00000001FF
:00000001FF
